{
  "contractName": "DeCloudFiles",
  "abi": [
    {
      "anonymous": false,
      "inputs": [
        {
          "indexed": false,
          "internalType": "address",
          "name": "to",
          "type": "address"
        }
      ],
      "name": "FileAdded",
      "type": "event"
    },
    {
      "inputs": [
        {
          "internalType": "string",
          "name": "filehash",
          "type": "string"
        },
        {
          "internalType": "string",
          "name": "fileName",
          "type": "string"
        },
        {
          "internalType": "string",
          "name": "fileType",
          "type": "string"
        },
        {
          "internalType": "string[]",
          "name": "storedIn",
          "type": "string[]"
        },
        {
          "internalType": "address",
          "name": "storageOwner",
          "type": "address"
        },
        {
          "internalType": "uint256",
          "name": "splitInto",
          "type": "uint256"
        },
        {
          "internalType": "uint256",
          "name": "uploadDate",
          "type": "uint256"
        },
        {
          "internalType": "uint256",
          "name": "fileSize",
          "type": "uint256"
        }
      ],
      "name": "addFile",
      "outputs": [],
      "stateMutability": "payable",
      "type": "function",
      "payable": true
    },
    {
      "inputs": [
        {
          "internalType": "uint256",
          "name": "position",
          "type": "uint256"
        }
      ],
      "name": "getFile",
      "outputs": [
        {
          "internalType": "string",
          "name": "",
          "type": "string"
        },
        {
          "internalType": "string",
          "name": "",
          "type": "string"
        },
        {
          "internalType": "string",
          "name": "",
          "type": "string"
        },
        {
          "internalType": "string[]",
          "name": "",
          "type": "string[]"
        },
        {
          "internalType": "uint256",
          "name": "",
          "type": "uint256"
        },
        {
          "internalType": "uint256",
          "name": "",
          "type": "uint256"
        },
        {
          "internalType": "uint256",
          "name": "",
          "type": "uint256"
        }
      ],
      "stateMutability": "view",
      "type": "function",
      "constant": true
    },
    {
      "inputs": [],
      "name": "getNoOfFile",
      "outputs": [
        {
          "internalType": "uint256",
          "name": "",
          "type": "uint256"
        }
      ],
      "stateMutability": "view",
      "type": "function",
      "constant": true
    },
    {
      "inputs": [],
      "name": "getNoOfPaidAmount",
      "outputs": [
        {
          "internalType": "uint256",
          "name": "",
          "type": "uint256"
        }
      ],
      "stateMutability": "view",
      "type": "function",
      "constant": true
    },
    {
      "inputs": [
        {
          "internalType": "uint256",
          "name": "position",
          "type": "uint256"
        }
      ],
      "name": "getAmount",
      "outputs": [
        {
          "internalType": "uint256",
          "name": "",
          "type": "uint256"
        },
        {
          "internalType": "uint256",
          "name": "",
          "type": "uint256"
        },
        {
          "internalType": "bool",
          "name": "",
          "type": "bool"
        }
      ],
      "stateMutability": "view",
      "type": "function",
      "constant": true
    },
    {
      "inputs": [
        {
          "internalType": "uint256",
          "name": "position",
          "type": "uint256"
        }
      ],
      "name": "getPaid",
      "outputs": [],
      "stateMutability": "payable",
      "type": "function",
      "payable": true
    }
  ],
  "bytecode": "0x608060405234801561001057600080fd5b506114fa806100206000396000f3fe6080604052600436106100555760003560e01c80632a92362c1461005a5780632bfda3131461007657806387cffb12146100b95780639980ec86146100e4578063e55a9c6f14610123578063ead09a2e1461014e575b600080fd5b610074600480360381019061006f9190610c44565b61016a565b005b34801561008257600080fd5b5061009d60048036038101906100989190610c44565b610361565b6040516100b09796959493929190610e25565b60405180910390f35b3480156100c557600080fd5b506100ce6106c2565b6040516100db9190610eb0565b60405180910390f35b3480156100f057600080fd5b5061010b60048036038101906101069190610c44565b61070b565b60405161011a93929190610ee6565b60405180910390f35b34801561012f57600080fd5b506101386107c9565b6040516101459190610eb0565b60405180910390f35b61016860048036038101906101639190611196565b610813565b005b6000600260003373ffffffffffffffffffffffffffffffffffffffff1673ffffffffffffffffffffffffffffffffffffffff16815260200190815260200160002082815481106101bd576101bc6112bc565b5b906000526020600020906003020160405180606001604052908160008201548152602001600182015481526020016002820160009054906101000a900460ff161515151581525050905060001515816040015115151461021c57600080fd5b6000816000015111610263576040517f08c379a000000000000000000000000000000000000000000000000000000000815260040161025a90611337565b60405180910390fd5b600115153373ffffffffffffffffffffffffffffffffffffffff166108fc83600001519081150290604051600060405180830381858888f193505050501515146102e2576040517f08c379a00000000000000000000000000000000000000000000000000000000081526004016102d9906113a3565b60405180910390fd5b6001600260003373ffffffffffffffffffffffffffffffffffffffff1673ffffffffffffffffffffffffffffffffffffffff1681526020019081526020016000208381548110610335576103346112bc565b5b906000526020600020906003020160020160006101000a81548160ff0219169083151502179055505050565b6060806060806000806000806000803373ffffffffffffffffffffffffffffffffffffffff1673ffffffffffffffffffffffffffffffffffffffff16815260200190815260200160002089815481106103bd576103bc6112bc565b5b90600052602060002090600702016040518060e00160405290816000820180546103e6906113f2565b80601f0160208091040260200160405190810160405280929190818152602001828054610412906113f2565b801561045f5780601f106104345761010080835404028352916020019161045f565b820191906000526020600020905b81548152906001019060200180831161044257829003601f168201915b50505050508152602001600182018054610478906113f2565b80601f01602080910402602001604051908101604052809291908181526020018280546104a4906113f2565b80156104f15780601f106104c6576101008083540402835291602001916104f1565b820191906000526020600020905b8154815290600101906020018083116104d457829003601f168201915b5050505050815260200160028201805461050a906113f2565b80601f0160208091040260200160405190810160405280929190818152602001828054610536906113f2565b80156105835780601f1061055857610100808354040283529160200191610583565b820191906000526020600020905b81548152906001019060200180831161056657829003601f168201915b5050505050815260200160038201805480602002602001604051908101604052809291908181526020016000905b8282101561065d5783829060005260206000200180546105d0906113f2565b80601f01602080910402602001604051908101604052809291908181526020018280546105fc906113f2565b80156106495780601f1061061e57610100808354040283529160200191610649565b820191906000526020600020905b81548152906001019060200180831161062c57829003601f168201915b5050505050815260200190600101906105b1565b50505050815260200160048201548152602001600582015481526020016006820154815250509050806000015181602001518260400151836060015184608001518560a001518660c00151975097509750975097509750975050919395979092949650565b60008060003373ffffffffffffffffffffffffffffffffffffffff1673ffffffffffffffffffffffffffffffffffffffff16815260200190815260200160002080549050905090565b600080600080600260003373ffffffffffffffffffffffffffffffffffffffff1673ffffffffffffffffffffffffffffffffffffffff1681526020019081526020016000208581548110610762576107616112bc565b5b906000526020600020906003020160405180606001604052908160008201548152602001600182015481526020016002820160009054906101000a900460ff1615151515815250509050806000015181602001518260400151935093509350509193909250565b6000600260003373ffffffffffffffffffffffffffffffffffffffff1673ffffffffffffffffffffffffffffffffffffffff16815260200190815260200160002080549050905090565b6000803373ffffffffffffffffffffffffffffffffffffffff1673ffffffffffffffffffffffffffffffffffffffff1681526020019081526020016000206040518060e001604052808a815260200189815260200188815260200187815260200185815260200184815260200183815250908060018154018082558091505060019003906000526020600020906007020160009091909190915060008201518160000190805190602001906108c9929190610a93565b5060208201518160010190805190602001906108e6929190610a93565b506040820151816002019080519060200190610903929190610a93565b506060820151816003019080519060200190610920929190610b19565b506080820151816004015560a0820151816005015560c082015181600601555050600160003373ffffffffffffffffffffffffffffffffffffffff1673ffffffffffffffffffffffffffffffffffffffff168152602001908152602001600020600081548092919061099190611452565b9190505550600260008573ffffffffffffffffffffffffffffffffffffffff1673ffffffffffffffffffffffffffffffffffffffff1681526020019081526020016000206040518060600160405280348152602001848152602001600015158152509080600181540180825580915050600190039060005260206000209060030201600090919091909150600082015181600001556020820151816001015560408201518160020160006101000a81548160ff02191690831515021790555050507f3723aa9f1b93cca057f414c9719f6372c791ac5dccbc99f705073424e653aa3b84604051610a8191906114a9565b60405180910390a15050505050505050565b828054610a9f906113f2565b90600052602060002090601f016020900481019282610ac15760008555610b08565b82601f10610ada57805160ff1916838001178555610b08565b82800160010185558215610b08579182015b82811115610b07578251825591602001919060010190610aec565b5b509050610b159190610b79565b5090565b828054828255906000526020600020908101928215610b68579160200282015b82811115610b67578251829080519060200190610b57929190610a93565b5091602001919060010190610b39565b5b509050610b759190610b96565b5090565b5b80821115610b92576000816000905550600101610b7a565b5090565b5b80821115610bb65760008181610bad9190610bba565b50600101610b97565b5090565b508054610bc6906113f2565b6000825580601f10610bd85750610bf7565b601f016020900490600052602060002090810190610bf69190610b79565b5b50565b6000604051905090565b600080fd5b600080fd5b6000819050919050565b610c2181610c0e565b8114610c2c57600080fd5b50565b600081359050610c3e81610c18565b92915050565b600060208284031215610c5a57610c59610c04565b5b6000610c6884828501610c2f565b91505092915050565b600081519050919050565b600082825260208201905092915050565b60005b83811015610cab578082015181840152602081019050610c90565b83811115610cba576000848401525b50505050565b6000601f19601f8301169050919050565b6000610cdc82610c71565b610ce68185610c7c565b9350610cf6818560208601610c8d565b610cff81610cc0565b840191505092915050565b600081519050919050565b600082825260208201905092915050565b6000819050602082019050919050565b600082825260208201905092915050565b6000610d5282610c71565b610d5c8185610d36565b9350610d6c818560208601610c8d565b610d7581610cc0565b840191505092915050565b6000610d8c8383610d47565b905092915050565b6000602082019050919050565b6000610dac82610d0a565b610db68185610d15565b935083602082028501610dc885610d26565b8060005b85811015610e045784840389528151610de58582610d80565b9450610df083610d94565b925060208a01995050600181019050610dcc565b50829750879550505050505092915050565b610e1f81610c0e565b82525050565b600060e0820190508181036000830152610e3f818a610cd1565b90508181036020830152610e538189610cd1565b90508181036040830152610e678188610cd1565b90508181036060830152610e7b8187610da1565b9050610e8a6080830186610e16565b610e9760a0830185610e16565b610ea460c0830184610e16565b98975050505050505050565b6000602082019050610ec56000830184610e16565b92915050565b60008115159050919050565b610ee081610ecb565b82525050565b6000606082019050610efb6000830186610e16565b610f086020830185610e16565b610f156040830184610ed7565b949350505050565b600080fd5b600080fd5b7f4e487b7100000000000000000000000000000000000000000000000000000000600052604160045260246000fd5b610f5f82610cc0565b810181811067ffffffffffffffff82111715610f7e57610f7d610f27565b5b80604052505050565b6000610f91610bfa565b9050610f9d8282610f56565b919050565b600067ffffffffffffffff821115610fbd57610fbc610f27565b5b610fc682610cc0565b9050602081019050919050565b82818337600083830152505050565b6000610ff5610ff084610fa2565b610f87565b90508281526020810184848401111561101157611010610f22565b5b61101c848285610fd3565b509392505050565b600082601f83011261103957611038610f1d565b5b8135611049848260208601610fe2565b91505092915050565b600067ffffffffffffffff82111561106d5761106c610f27565b5b602082029050602081019050919050565b600080fd5b600061109661109184611052565b610f87565b905080838252602082019050602084028301858111156110b9576110b861107e565b5b835b8181101561110057803567ffffffffffffffff8111156110de576110dd610f1d565b5b8086016110eb8982611024565b855260208501945050506020810190506110bb565b5050509392505050565b600082601f83011261111f5761111e610f1d565b5b813561112f848260208601611083565b91505092915050565b600073ffffffffffffffffffffffffffffffffffffffff82169050919050565b600061116382611138565b9050919050565b61117381611158565b811461117e57600080fd5b50565b6000813590506111908161116a565b92915050565b600080600080600080600080610100898b0312156111b7576111b6610c04565b5b600089013567ffffffffffffffff8111156111d5576111d4610c09565b5b6111e18b828c01611024565b985050602089013567ffffffffffffffff81111561120257611201610c09565b5b61120e8b828c01611024565b975050604089013567ffffffffffffffff81111561122f5761122e610c09565b5b61123b8b828c01611024565b965050606089013567ffffffffffffffff81111561125c5761125b610c09565b5b6112688b828c0161110a565b95505060806112798b828c01611181565b94505060a061128a8b828c01610c2f565b93505060c061129b8b828c01610c2f565b92505060e06112ac8b828c01610c2f565b9150509295985092959890939650565b7f4e487b7100000000000000000000000000000000000000000000000000000000600052603260045260246000fd5b7f496e73756666696369656e74206d6f6e65790000000000000000000000000000600082015250565b6000611321601283610c7c565b915061132c826112eb565b602082019050919050565b6000602082019050818103600083015261135081611314565b9050919050565b7f5472616e73616374696f6e204661696c65640000000000000000000000000000600082015250565b600061138d601283610c7c565b915061139882611357565b602082019050919050565b600060208201905081810360008301526113bc81611380565b9050919050565b7f4e487b7100000000000000000000000000000000000000000000000000000000600052602260045260246000fd5b6000600282049050600182168061140a57607f821691505b60208210810361141d5761141c6113c3565b5b50919050565b7f4e487b7100000000000000000000000000000000000000000000000000000000600052601160045260246000fd5b600061145d82610c0e565b91507fffffffffffffffffffffffffffffffffffffffffffffffffffffffffffffffff820361148f5761148e611423565b5b600182019050919050565b6114a381611158565b82525050565b60006020820190506114be600083018461149a565b9291505056fea264697066735822122064cc974080aa66c3ab21f4cbaedc04df6d837eb5e841c1d7a34c65602d77f21464736f6c634300080d0033",
  "immutableReferences": {},
  "source": "// SPDX-License-Identifier: MIT\r\npragma solidity ^0.8.13;\r\n\r\ncontract DeCloudFiles { \r\n\r\n    struct FileDetails {\r\n        string hashValueOfFile; \r\n        string nameOfFile;  \r\n        string typeOfFile;\r\n        string[] storedIn;\r\n        uint256 splitInto;\r\n        uint256 uploadDate;\r\n        uint256 fileSize;\r\n    }\r\n\r\n    struct TransactionDetails {\r\n        uint256 amount;\r\n        uint256 date;\r\n        bool isPaid;\r\n    }\r\n\r\n    mapping (address => FileDetails[]) files;\r\n    mapping (address => uint256) noOfFiles;\r\n    mapping (address => TransactionDetails[]) amountGainedBy; \r\n\r\n    event FileAdded(address to);\r\n\r\n    function addFile (string memory filehash, string memory fileName, string memory fileType,string[] memory storedIn,address storageOwner,uint256 splitInto, uint256 uploadDate,uint256 fileSize) public payable {\r\n        files[msg.sender].push(FileDetails(filehash,fileName,fileType,storedIn,splitInto,uploadDate,fileSize));\r\n        noOfFiles[msg.sender]++;\r\n        amountGainedBy[storageOwner].push(TransactionDetails(msg.value,uploadDate,false));\r\n        emit FileAdded(storageOwner);\r\n    }\r\n\r\n    function getFile(uint256 position) public view returns (string memory, string memory, string memory, string[] memory, uint256, uint256, uint256) {\r\n        FileDetails memory file = files[msg.sender][position];\r\n        return ( file.hashValueOfFile, file.nameOfFile, file.typeOfFile, file.storedIn,file.splitInto,file.uploadDate,file.fileSize);\r\n    }\r\n\r\n    function getNoOfFile() public view returns (uint256){\r\n        return files[msg.sender].length;\r\n    }\r\n\r\n    function getNoOfPaidAmount() public view returns (uint256){\r\n        return amountGainedBy[msg.sender].length;\r\n    }\r\n\r\n    function getAmount(uint256 position) public view returns (uint256, uint256, bool){\r\n        TransactionDetails memory transac = amountGainedBy[msg.sender][position];\r\n        return (transac.amount,transac.date,transac.isPaid);\r\n    }\r\n\r\n    function getPaid(uint256 position) public payable{\r\n        TransactionDetails memory transac = amountGainedBy[msg.sender][position];\r\n\r\n        require(transac.isPaid == false);\r\n        require(transac.amount > 0,\"Insufficient money\");\r\n        require(payable(msg.sender).send(transac.amount) == true,\"Transaction Failed\");\r\n        amountGainedBy[msg.sender][position].isPaid = true;\r\n    }\r\n}\r\n",
  "sourcePath": "/home/aaj/Documents/Workspace/DeCloud/truffle/contracts/DeCloudFiles.sol",
  "compiler": {
    "name": "solc",
    "version": "0.8.13+commit.abaa5c0e.Emscripten.clang"
  },
  "schemaVersion": "3.4.6",
  "updatedAt": "2022-04-03T16:10:39.455Z",
  "networkType": "ethereum",
  "devdoc": {
    "kind": "dev",
    "methods": {},
    "version": 1
  },
  "userdoc": {
    "kind": "user",
    "methods": {},
    "version": 1
  }
}