{
  "contractName": "DeCloudFiles",
  "abi": [
    {
      "constant": false,
      "inputs": [
        {
          "name": "filehash",
          "type": "string"
        },
        {
          "name": "fileName",
          "type": "string"
        },
        {
          "name": "fileType",
          "type": "string"
        },
        {
          "name": "storedIn",
          "type": "string"
        },
        {
          "name": "storageOwner",
          "type": "address"
        },
        {
          "name": "splitInto",
          "type": "uint256"
        }
      ],
      "name": "addFile",
      "outputs": [],
      "payable": true,
      "stateMutability": "payable",
      "type": "function"
    },
    {
      "constant": true,
      "inputs": [
        {
          "name": "position",
          "type": "uint256"
        }
      ],
      "name": "getFile",
      "outputs": [
        {
          "name": "",
          "type": "string"
        },
        {
          "name": "",
          "type": "string"
        },
        {
          "name": "",
          "type": "string"
        },
        {
          "name": "",
          "type": "string"
        },
        {
          "name": "",
          "type": "uint256"
        }
      ],
      "payable": false,
      "stateMutability": "view",
      "type": "function"
    },
    {
      "constant": true,
      "inputs": [],
      "name": "getNoOfFile",
      "outputs": [
        {
          "name": "",
          "type": "uint256"
        }
      ],
      "payable": false,
      "stateMutability": "view",
      "type": "function"
    },
    {
      "constant": true,
      "inputs": [],
      "name": "getAmount",
      "outputs": [
        {
          "name": "",
          "type": "uint256"
        }
      ],
      "payable": false,
      "stateMutability": "view",
      "type": "function"
    },
    {
      "constant": false,
      "inputs": [],
      "name": "getPaid",
      "outputs": [],
      "payable": true,
      "stateMutability": "payable",
      "type": "function"
    }
  ],
  "bytecode": "0x608060405234801561001057600080fd5b50610db6806100206000396000f3fe60806040526004361061006d576000357c0100000000000000000000000000000000000000000000000000000000900463ffffffff16806313a81124146100725780632bfda3131461031c57806387cffb121461051b578063cf41d6f814610546578063d321fe2914610550575b600080fd5b61031a600480360360c081101561008857600080fd5b81019080803590602001906401000000008111156100a557600080fd5b8201836020820111156100b757600080fd5b803590602001918460018302840111640100000000831117156100d957600080fd5b91908080601f016020809104026020016040519081016040528093929190818152602001838380828437600081840152601f19601f8201169050808301925050505050505091929192908035906020019064010000000081111561013c57600080fd5b82018360208201111561014e57600080fd5b8035906020019184600183028401116401000000008311171561017057600080fd5b91908080601f016020809104026020016040519081016040528093929190818152602001838380828437600081840152601f19601f820116905080830192505050505050509192919290803590602001906401000000008111156101d357600080fd5b8201836020820111156101e557600080fd5b8035906020019184600183028401116401000000008311171561020757600080fd5b91908080601f016020809104026020016040519081016040528093929190818152602001838380828437600081840152601f19601f8201169050808301925050505050505091929192908035906020019064010000000081111561026a57600080fd5b82018360208201111561027c57600080fd5b8035906020019184600183028401116401000000008311171561029e57600080fd5b91908080601f016020809104026020016040519081016040528093929190818152602001838380828437600081840152601f19601f820116905080830192505050505050509192919290803573ffffffffffffffffffffffffffffffffffffffff1690602001909291908035906020019092919050505061057b565b005b34801561032857600080fd5b506103556004803603602081101561033f57600080fd5b8101908080359060200190929190505050610731565b604051808060200180602001806020018060200186815260200185810385528a818151815260200191508051906020019080838360005b838110156103a757808201518184015260208101905061038c565b50505050905090810190601f1680156103d45780820380516001836020036101000a031916815260200191505b50858103845289818151815260200191508051906020019080838360005b8381101561040d5780820151818401526020810190506103f2565b50505050905090810190601f16801561043a5780820380516001836020036101000a031916815260200191505b50858103835288818151815260200191508051906020019080838360005b83811015610473578082015181840152602081019050610458565b50505050905090810190601f1680156104a05780820380516001836020036101000a031916815260200191505b50858103825287818151815260200191508051906020019080838360005b838110156104d95780820151818401526020810190506104be565b50505050905090810190601f1680156105065780820380516001836020036101000a031916815260200191505b50995050505050505050505060405180910390f35b34801561052757600080fd5b50610530610a73565b6040518082815260200191505060405180910390f35b61054e610aba565b005b34801561055c57600080fd5b50610565610c6e565b6040518082815260200191505060405180910390f35b6000803373ffffffffffffffffffffffffffffffffffffffff1673ffffffffffffffffffffffffffffffffffffffff16815260200190815260200160002060a06040519081016040528088815260200187815260200186815260200185815260200183815250908060018154018082558091505090600182039060005260206000209060050201600090919290919091506000820151816000019080519060200190610628929190610cb5565b506020820151816001019080519060200190610645929190610cb5565b506040820151816002019080519060200190610662929190610cb5565b50606082015181600301908051906020019061067f929190610cb5565b5060808201518160040155505050600160003373ffffffffffffffffffffffffffffffffffffffff1673ffffffffffffffffffffffffffffffffffffffff1681526020019081526020016000206000815480929190600101919050555034600260008473ffffffffffffffffffffffffffffffffffffffff1673ffffffffffffffffffffffffffffffffffffffff16815260200190815260200160002060008282540192505081905550505050505050565b6060806060806000610741610d35565b6000803373ffffffffffffffffffffffffffffffffffffffff1673ffffffffffffffffffffffffffffffffffffffff1681526020019081526020016000208781548110151561078c57fe5b906000526020600020906005020160a06040519081016040529081600082018054600181600116156101000203166002900480601f01602080910402602001604051908101604052809291908181526020018280546001816001161561010002031660029004801561083f5780601f106108145761010080835404028352916020019161083f565b820191906000526020600020905b81548152906001019060200180831161082257829003601f168201915b50505050508152602001600182018054600181600116156101000203166002900480601f0160208091040260200160405190810160405280929190818152602001828054600181600116156101000203166002900480156108e15780601f106108b6576101008083540402835291602001916108e1565b820191906000526020600020905b8154815290600101906020018083116108c457829003601f168201915b50505050508152602001600282018054600181600116156101000203166002900480601f0160208091040260200160405190810160405280929190818152602001828054600181600116156101000203166002900480156109835780601f1061095857610100808354040283529160200191610983565b820191906000526020600020905b81548152906001019060200180831161096657829003601f168201915b50505050508152602001600382018054600181600116156101000203166002900480601f016020809104026020016040519081016040528092919081815260200182805460018160011615610100020316600290048015610a255780601f106109fa57610100808354040283529160200191610a25565b820191906000526020600020905b815481529060010190602001808311610a0857829003601f168201915b50505050508152602001600482015481525050905080600001518160200151826040015183606001518460800151849450839350829250819150955095509550955095505091939590929450565b6000600160003373ffffffffffffffffffffffffffffffffffffffff1673ffffffffffffffffffffffffffffffffffffffff16815260200190815260200160002054905090565b6000600260003373ffffffffffffffffffffffffffffffffffffffff1673ffffffffffffffffffffffffffffffffffffffff168152602001908152602001600020549050600081111515610b76576040517f08c379a00000000000000000000000000000000000000000000000000000000081526004018080602001828103825260128152602001807f496e73756666696369656e74206d6f6e6579000000000000000000000000000081525060200191505060405180910390fd5b600115153373ffffffffffffffffffffffffffffffffffffffff166108fc839081150290604051600060405180830381858888f193505050501515141515610c26576040517f08c379a00000000000000000000000000000000000000000000000000000000081526004018080602001828103825260128152602001807f5472616e73616374696f6e204661696c6564000000000000000000000000000081525060200191505060405180910390fd5b6000600260003373ffffffffffffffffffffffffffffffffffffffff1673ffffffffffffffffffffffffffffffffffffffff1681526020019081526020016000208190555050565b6000600260003373ffffffffffffffffffffffffffffffffffffffff1673ffffffffffffffffffffffffffffffffffffffff16815260200190815260200160002054905090565b828054600181600116156101000203166002900490600052602060002090601f016020900481019282601f10610cf657805160ff1916838001178555610d24565b82800160010185558215610d24579182015b82811115610d23578251825591602001919060010190610d08565b5b509050610d319190610d65565b5090565b60a06040519081016040528060608152602001606081526020016060815260200160608152602001600081525090565b610d8791905b80821115610d83576000816000905550600101610d6b565b5090565b9056fea165627a7a723058207e93b9f5f1cec8ca8e3541af2ff80db78dc08eea198eb7115fff861c5b5f34c00029",
  "source": "pragma solidity ^0.5.0;\r\n\r\ncontract DeCloudFiles { \r\n\r\n    struct FileDetails {\r\n        string hashValueOfFile; \r\n        string nameOfFile;  \r\n        string typeOfFile;\r\n        string storedIn;\r\n        uint256 splitInto;\r\n    }\r\n\r\n    mapping (address => FileDetails[]) files;\r\n    mapping (address => uint256) noOfFiles;\r\n    mapping (address => uint) amountGainedBy; \r\n\r\n    function addFile (string memory filehash, string memory fileName, string memory fileType,string memory storedIn,address storageOwner,uint256 splitInto) public payable {\r\n        files[msg.sender].push(FileDetails(filehash,fileName,fileType,storedIn,splitInto));\r\n        noOfFiles[msg.sender]++;\r\n        amountGainedBy[storageOwner] += msg.value;\r\n    }\r\n\r\n    function getFile(uint256 position) public view returns (string memory, string memory, string memory, string memory,uint256) {\r\n        FileDetails memory file = files[msg.sender][position];\r\n        return ( file.hashValueOfFile, file.nameOfFile, file.typeOfFile, file.storedIn,file.splitInto);\r\n    }\r\n\r\n    function getNoOfFile() public view returns (uint256){\r\n        return noOfFiles[msg.sender];\r\n    }\r\n\r\n    function getAmount() public view returns (uint){\r\n        return amountGainedBy[msg.sender];\r\n    }\r\n\r\n    function getPaid() public payable{\r\n        uint amount = amountGainedBy[msg.sender];\r\n        require(amount > 0,\"Insufficient money\");\r\n        require(msg.sender.send(amount) == true,\"Transaction Failed\");\r\n        amountGainedBy[msg.sender] = 0;\r\n    }\r\n}\r\n",
  "sourcePath": "/home/aaj/Documents/Workspace/DeCloud/truffle/contracts/DeCloudFiles.sol",
  "compiler": {
    "name": "solc",
    "version": "0.5.0+commit.1d4f565a.Emscripten.clang"
  },
  "schemaVersion": "3.4.6",
  "updatedAt": "2022-03-30T15:34:34.962Z",
  "networkType": "ethereum",
  "devdoc": {
    "methods": {}
  },
  "userdoc": {
    "methods": {}
  }
}