{
  "contractName": "DeCloudFiles",
  "abi": [
    {
      "constant": false,
      "inputs": [
        {
          "name": "filehash",
          "type": "string"
        },
        {
          "name": "fileName",
          "type": "string"
        },
        {
          "name": "fileType",
          "type": "string"
        },
        {
          "name": "storedIn",
          "type": "string"
        },
        {
          "name": "storageOwner",
          "type": "address"
        }
      ],
      "name": "addFile",
      "outputs": [],
      "payable": true,
      "stateMutability": "payable",
      "type": "function"
    },
    {
      "constant": true,
      "inputs": [
        {
          "name": "position",
          "type": "uint256"
        }
      ],
      "name": "getFile",
      "outputs": [
        {
          "name": "",
          "type": "string"
        },
        {
          "name": "",
          "type": "string"
        },
        {
          "name": "",
          "type": "string"
        },
        {
          "name": "",
          "type": "string"
        }
      ],
      "payable": false,
      "stateMutability": "view",
      "type": "function"
    },
    {
      "constant": true,
      "inputs": [],
      "name": "getNoOfFile",
      "outputs": [
        {
          "name": "",
          "type": "uint256"
        }
      ],
      "payable": false,
      "stateMutability": "view",
      "type": "function"
    },
    {
      "constant": true,
      "inputs": [],
      "name": "getAmount",
      "outputs": [
        {
          "name": "",
          "type": "uint256"
        }
      ],
      "payable": false,
      "stateMutability": "view",
      "type": "function"
    },
    {
      "constant": false,
      "inputs": [],
      "name": "getPaid",
      "outputs": [],
      "payable": true,
      "stateMutability": "payable",
      "type": "function"
    }
  ],
  "bytecode": "0x608060405234801561001057600080fd5b50610d6f806100206000396000f3fe60806040526004361061006d576000357c0100000000000000000000000000000000000000000000000000000000900463ffffffff1680632bfda3131461007257806387cffb121461026a5780638d287d6e14610295578063cf41d6f814610535578063d321fe291461053f575b600080fd5b34801561007e57600080fd5b506100ab6004803603602081101561009557600080fd5b810190808035906020019092919050505061056a565b6040518080602001806020018060200180602001858103855289818151815260200191508051906020019080838360005b838110156100f75780820151818401526020810190506100dc565b50505050905090810190601f1680156101245780820380516001836020036101000a031916815260200191505b50858103845288818151815260200191508051906020019080838360005b8381101561015d578082015181840152602081019050610142565b50505050905090810190601f16801561018a5780820380516001836020036101000a031916815260200191505b50858103835287818151815260200191508051906020019080838360005b838110156101c35780820151818401526020810190506101a8565b50505050905090810190601f1680156101f05780820380516001836020036101000a031916815260200191505b50858103825286818151815260200191508051906020019080838360005b8381101561022957808201518184015260208101905061020e565b50505050905090810190601f1680156102565780820380516001836020036101000a031916815260200191505b509850505050505050505060405180910390f35b34801561027657600080fd5b5061027f610897565b6040518082815260200191505060405180910390f35b610533600480360360a08110156102ab57600080fd5b81019080803590602001906401000000008111156102c857600080fd5b8201836020820111156102da57600080fd5b803590602001918460018302840111640100000000831117156102fc57600080fd5b91908080601f016020809104026020016040519081016040528093929190818152602001838380828437600081840152601f19601f8201169050808301925050505050505091929192908035906020019064010000000081111561035f57600080fd5b82018360208201111561037157600080fd5b8035906020019184600183028401116401000000008311171561039357600080fd5b91908080601f016020809104026020016040519081016040528093929190818152602001838380828437600081840152601f19601f820116905080830192505050505050509192919290803590602001906401000000008111156103f657600080fd5b82018360208201111561040857600080fd5b8035906020019184600183028401116401000000008311171561042a57600080fd5b91908080601f016020809104026020016040519081016040528093929190818152602001838380828437600081840152601f19601f8201169050808301925050505050505091929192908035906020019064010000000081111561048d57600080fd5b82018360208201111561049f57600080fd5b803590602001918460018302840111640100000000831117156104c157600080fd5b91908080601f016020809104026020016040519081016040528093929190818152602001838380828437600081840152601f19601f820116905080830192505050505050509192919290803573ffffffffffffffffffffffffffffffffffffffff1690602001909291905050506108de565b005b61053d610a7a565b005b34801561054b57600080fd5b50610554610c2e565b6040518082815260200191505060405180910390f35b606080606080610578610c75565b6000803373ffffffffffffffffffffffffffffffffffffffff1673ffffffffffffffffffffffffffffffffffffffff168152602001908152602001600020868154811015156105c357fe5b906000526020600020906004020160806040519081016040529081600082018054600181600116156101000203166002900480601f0160208091040260200160405190810160405280929190818152602001828054600181600116156101000203166002900480156106765780601f1061064b57610100808354040283529160200191610676565b820191906000526020600020905b81548152906001019060200180831161065957829003601f168201915b50505050508152602001600182018054600181600116156101000203166002900480601f0160208091040260200160405190810160405280929190818152602001828054600181600116156101000203166002900480156107185780601f106106ed57610100808354040283529160200191610718565b820191906000526020600020905b8154815290600101906020018083116106fb57829003601f168201915b50505050508152602001600282018054600181600116156101000203166002900480601f0160208091040260200160405190810160405280929190818152602001828054600181600116156101000203166002900480156107ba5780601f1061078f576101008083540402835291602001916107ba565b820191906000526020600020905b81548152906001019060200180831161079d57829003601f168201915b50505050508152602001600382018054600181600116156101000203166002900480601f01602080910402602001604051908101604052809291908181526020018280546001816001161561010002031660029004801561085c5780601f106108315761010080835404028352916020019161085c565b820191906000526020600020905b81548152906001019060200180831161083f57829003601f168201915b505050505081525050905080600001518160200151826040015183606001518393508292508191508090509450945094509450509193509193565b6000600160003373ffffffffffffffffffffffffffffffffffffffff1673ffffffffffffffffffffffffffffffffffffffff16815260200190815260200160002054905090565b6000803373ffffffffffffffffffffffffffffffffffffffff1673ffffffffffffffffffffffffffffffffffffffff16815260200190815260200160002060806040519081016040528087815260200186815260200185815260200184815250908060018154018082558091505090600182039060005260206000209060040201600090919290919091506000820151816000019080519060200190610985929190610c9e565b5060208201518160010190805190602001906109a2929190610c9e565b5060408201518160020190805190602001906109bf929190610c9e565b5060608201518160030190805190602001906109dc929190610c9e565b50505050600160003373ffffffffffffffffffffffffffffffffffffffff1673ffffffffffffffffffffffffffffffffffffffff1681526020019081526020016000206000815480929190600101919050555034600260008373ffffffffffffffffffffffffffffffffffffffff1673ffffffffffffffffffffffffffffffffffffffff168152602001908152602001600020819055505050505050565b6000600260003373ffffffffffffffffffffffffffffffffffffffff1673ffffffffffffffffffffffffffffffffffffffff168152602001908152602001600020549050600081111515610b36576040517f08c379a00000000000000000000000000000000000000000000000000000000081526004018080602001828103825260128152602001807f496e73756666696369656e74206d6f6e6579000000000000000000000000000081525060200191505060405180910390fd5b600115153373ffffffffffffffffffffffffffffffffffffffff166108fc839081150290604051600060405180830381858888f193505050501515141515610be6576040517f08c379a00000000000000000000000000000000000000000000000000000000081526004018080602001828103825260128152602001807f5472616e73616374696f6e204661696c6564000000000000000000000000000081525060200191505060405180910390fd5b6000600260003373ffffffffffffffffffffffffffffffffffffffff1673ffffffffffffffffffffffffffffffffffffffff1681526020019081526020016000208190555050565b6000600260003373ffffffffffffffffffffffffffffffffffffffff1673ffffffffffffffffffffffffffffffffffffffff16815260200190815260200160002054905090565b608060405190810160405280606081526020016060815260200160608152602001606081525090565b828054600181600116156101000203166002900490600052602060002090601f016020900481019282601f10610cdf57805160ff1916838001178555610d0d565b82800160010185558215610d0d579182015b82811115610d0c578251825591602001919060010190610cf1565b5b509050610d1a9190610d1e565b5090565b610d4091905b80821115610d3c576000816000905550600101610d24565b5090565b9056fea165627a7a7230582070c0be55bc8b67a444913311e77f2e35c2222539ad0706b15fac68920628dcd90029",
  "source": "pragma solidity ^0.5.0;\r\n\r\ncontract DeCloudFiles { \r\n\r\n    struct FileDetails {\r\n        string hashValueOfFile; \r\n        string nameOfFile;  \r\n        string typeOfFile;\r\n        string storedIn;\r\n    }\r\n\r\n    mapping (address => FileDetails[]) files;\r\n    mapping (address => uint256) noOfFiles;\r\n    mapping (address => uint) amountGainedBy; \r\n\r\n    function addFile (string memory filehash, string memory fileName, string memory fileType,string memory storedIn,address payable storageOwner) public payable {\r\n        files[msg.sender].push(FileDetails(filehash,fileName,fileType,storedIn));\r\n        noOfFiles[msg.sender]++;\r\n        amountGainedBy[storageOwner] = msg.value;\r\n    }\r\n\r\n    function getFile(uint256 position) public view returns (string memory, string memory, string memory, string memory) {\r\n        FileDetails memory file = files[msg.sender][position];\r\n        return ( file.hashValueOfFile, file.nameOfFile, file.typeOfFile, file.storedIn );\r\n    }\r\n\r\n    function getNoOfFile() public view returns (uint256){\r\n        return noOfFiles[msg.sender];\r\n    }\r\n\r\n    function getAmount() public view returns (uint){\r\n        return amountGainedBy[msg.sender];\r\n    }\r\n\r\n    function getPaid() public payable{\r\n        uint amount = amountGainedBy[msg.sender];\r\n        require(amount > 0,\"Insufficient money\");\r\n        require(msg.sender.send(amount)==true,\"Transaction Failed\");\r\n        amountGainedBy[msg.sender] = 0;\r\n    }\r\n}\r\n",
  "sourcePath": "/home/aaj/Documents/Workspace/DeCloud/truffle/contracts/DeCloudFiles.sol",
  "compiler": {
    "name": "solc",
    "version": "0.5.0+commit.1d4f565a.Emscripten.clang"
  },
  "schemaVersion": "3.4.6",
  "updatedAt": "2022-03-30T11:43:17.982Z",
  "networkType": "ethereum",
  "devdoc": {
    "methods": {}
  },
  "userdoc": {
    "methods": {}
  }
}