{
  "contractName": "DeCloudFiles",
  "abi": [
    {
      "anonymous": false,
      "inputs": [],
      "name": "FileAdded",
      "type": "event"
    },
    {
      "anonymous": false,
      "inputs": [
        {
          "indexed": false,
          "internalType": "address",
          "name": "to",
          "type": "address"
        }
      ],
      "name": "FundsWithdrawn",
      "type": "event"
    },
    {
      "inputs": [
        {
          "internalType": "string",
          "name": "filehash",
          "type": "string"
        },
        {
          "internalType": "string",
          "name": "fileName",
          "type": "string"
        },
        {
          "internalType": "string",
          "name": "fileType",
          "type": "string"
        },
        {
          "internalType": "string[]",
          "name": "storedIn",
          "type": "string[]"
        },
        {
          "internalType": "address[]",
          "name": "storageOwners",
          "type": "address[]"
        },
        {
          "internalType": "uint256",
          "name": "numberOfStorageOwner",
          "type": "uint256"
        },
        {
          "internalType": "uint256",
          "name": "splitInto",
          "type": "uint256"
        },
        {
          "internalType": "uint256",
          "name": "uploadDate",
          "type": "uint256"
        },
        {
          "internalType": "uint256",
          "name": "fileSize",
          "type": "uint256"
        }
      ],
      "name": "addFile",
      "outputs": [],
      "stateMutability": "payable",
      "type": "function",
      "payable": true
    },
    {
      "inputs": [
        {
          "internalType": "uint256",
          "name": "position",
          "type": "uint256"
        }
      ],
      "name": "getFile",
      "outputs": [
        {
          "internalType": "string",
          "name": "",
          "type": "string"
        },
        {
          "internalType": "string",
          "name": "",
          "type": "string"
        },
        {
          "internalType": "string",
          "name": "",
          "type": "string"
        },
        {
          "internalType": "string[]",
          "name": "",
          "type": "string[]"
        },
        {
          "internalType": "uint256",
          "name": "",
          "type": "uint256"
        },
        {
          "internalType": "uint256",
          "name": "",
          "type": "uint256"
        },
        {
          "internalType": "uint256",
          "name": "",
          "type": "uint256"
        }
      ],
      "stateMutability": "view",
      "type": "function",
      "constant": true
    },
    {
      "inputs": [],
      "name": "getNoOfFile",
      "outputs": [
        {
          "internalType": "uint256",
          "name": "",
          "type": "uint256"
        }
      ],
      "stateMutability": "view",
      "type": "function",
      "constant": true
    },
    {
      "inputs": [],
      "name": "getNoOfPaidAmount",
      "outputs": [
        {
          "internalType": "uint256",
          "name": "",
          "type": "uint256"
        }
      ],
      "stateMutability": "view",
      "type": "function",
      "constant": true
    },
    {
      "inputs": [
        {
          "internalType": "uint256",
          "name": "position",
          "type": "uint256"
        }
      ],
      "name": "getAmount",
      "outputs": [
        {
          "internalType": "uint256",
          "name": "",
          "type": "uint256"
        },
        {
          "internalType": "uint256",
          "name": "",
          "type": "uint256"
        },
        {
          "internalType": "bool",
          "name": "",
          "type": "bool"
        }
      ],
      "stateMutability": "view",
      "type": "function",
      "constant": true
    },
    {
      "inputs": [
        {
          "internalType": "uint256",
          "name": "position",
          "type": "uint256"
        }
      ],
      "name": "getPaid",
      "outputs": [],
      "stateMutability": "payable",
      "type": "function",
      "payable": true
    },
    {
      "inputs": [
        {
          "internalType": "address",
          "name": "storageOwner",
          "type": "address"
        },
        {
          "internalType": "uint256",
          "name": "uploadDate",
          "type": "uint256"
        }
      ],
      "name": "getRefund",
      "outputs": [],
      "stateMutability": "payable",
      "type": "function",
      "payable": true
    }
  ],
  "bytecode": "0x608060405234801561001057600080fd5b50611ad8806100206000396000f3fe6080604052600436106100705760003560e01c806387cffb121161004e57806387cffb12146100f05780639980ec861461011b578063e55a9c6f1461015a578063eb1e2a411461018557610070565b80632a92362c146100755780632bfda3131461009157806336a8f804146100d4575b600080fd5b61008f600480360381019061008a9190611023565b6101a1565b005b34801561009d57600080fd5b506100b860048036038101906100b39190611023565b610405565b6040516100cb9796959493929190611204565b60405180910390f35b6100ee60048036038101906100e991906115cb565b610766565b005b3480156100fc57600080fd5b50610105610a20565b6040516101129190611721565b60405180910390f35b34801561012757600080fd5b50610142600480360381019061013d9190611023565b610a69565b60405161015193929190611757565b60405180910390f35b34801561016657600080fd5b5061016f610b27565b60405161017c9190611721565b60405180910390f35b61019f600480360381019061019a919061178e565b610b71565b005b6000600260003373ffffffffffffffffffffffffffffffffffffffff1673ffffffffffffffffffffffffffffffffffffffff16815260200190815260200160002082815481106101f4576101f36117ce565b5b906000526020600020906003020160405180606001604052908160008201548152602001600182015481526020016002820160009054906101000a900460ff1615151515815250509050600015158160400151151514610289576040517f08c379a000000000000000000000000000000000000000000000000000000000815260040161028090611849565b60405180910390fd5b60008160000151116102d0576040517f08c379a00000000000000000000000000000000000000000000000000000000081526004016102c7906118b5565b60405180910390fd5b600115153373ffffffffffffffffffffffffffffffffffffffff166108fc83600001519081150290604051600060405180830381858888f1935050505015151461034f576040517f08c379a000000000000000000000000000000000000000000000000000000000815260040161034690611921565b60405180910390fd5b6001600260003373ffffffffffffffffffffffffffffffffffffffff1673ffffffffffffffffffffffffffffffffffffffff16815260200190815260200160002083815481106103a2576103a16117ce565b5b906000526020600020906003020160020160006101000a81548160ff0219169083151502179055507f07c755342db70f3cd9b012463bcfdc68a1009115e2f9910e5562f81d73e5c225336040516103f99190611950565b60405180910390a15050565b6060806060806000806000806000803373ffffffffffffffffffffffffffffffffffffffff1673ffffffffffffffffffffffffffffffffffffffff1681526020019081526020016000208981548110610461576104606117ce565b5b90600052602060002090600702016040518060e001604052908160008201805461048a9061199a565b80601f01602080910402602001604051908101604052809291908181526020018280546104b69061199a565b80156105035780601f106104d857610100808354040283529160200191610503565b820191906000526020600020905b8154815290600101906020018083116104e657829003601f168201915b5050505050815260200160018201805461051c9061199a565b80601f01602080910402602001604051908101604052809291908181526020018280546105489061199a565b80156105955780601f1061056a57610100808354040283529160200191610595565b820191906000526020600020905b81548152906001019060200180831161057857829003601f168201915b505050505081526020016002820180546105ae9061199a565b80601f01602080910402602001604051908101604052809291908181526020018280546105da9061199a565b80156106275780601f106105fc57610100808354040283529160200191610627565b820191906000526020600020905b81548152906001019060200180831161060a57829003601f168201915b5050505050815260200160038201805480602002602001604051908101604052809291908181526020016000905b828210156107015783829060005260206000200180546106749061199a565b80601f01602080910402602001604051908101604052809291908181526020018280546106a09061199a565b80156106ed5780601f106106c2576101008083540402835291602001916106ed565b820191906000526020600020905b8154815290600101906020018083116106d057829003601f168201915b505050505081526020019060010190610655565b50505050815260200160048201548152602001600582015481526020016006820154815250509050806000015181602001518260400151836060015184608001518560a001518660c00151975097509750975097509750975050919395979092949650565b6000803373ffffffffffffffffffffffffffffffffffffffff1673ffffffffffffffffffffffffffffffffffffffff1681526020019081526020016000206040518060e001604052808b81526020018a8152602001898152602001888152602001858152602001848152602001838152509080600181540180825580915050600190039060005260206000209060070201600090919091909150600082015181600001908051906020019061081c929190610e4f565b506020820151816001019080519060200190610839929190610e4f565b506040820151816002019080519060200190610856929190610e4f565b506060820151816003019080519060200190610873929190610ed5565b506080820151816004015560a0820151816005015560c082015181600601555050600160003373ffffffffffffffffffffffffffffffffffffffff1673ffffffffffffffffffffffffffffffffffffffff16815260200190815260200160002060008154809291906108e4906119fa565b919050555060005b848110156109e8576002600087838151811061090b5761090a6117ce565b5b602002602001015173ffffffffffffffffffffffffffffffffffffffff1673ffffffffffffffffffffffffffffffffffffffff168152602001908152602001600020604051806060016040528087346109649190611a71565b8152602001858152602001600015158152509080600181540180825580915050600190039060005260206000209060030201600090919091909150600082015181600001556020820151816001015560408201518160020160006101000a81548160ff021916908315150217905550505080806109e0906119fa565b9150506108ec565b507febed6980760895ebd516b77fcc890dd5bcf3baf925ff43bb8541d381260d464860405160405180910390a1505050505050505050565b60008060003373ffffffffffffffffffffffffffffffffffffffff1673ffffffffffffffffffffffffffffffffffffffff16815260200190815260200160002080549050905090565b600080600080600260003373ffffffffffffffffffffffffffffffffffffffff1673ffffffffffffffffffffffffffffffffffffffff1681526020019081526020016000208581548110610ac057610abf6117ce565b5b906000526020600020906003020160405180606001604052908160008201548152602001600182015481526020016002820160009054906101000a900460ff1615151515815250509050806000015181602001518260400151935093509350509193909250565b6000600260003373ffffffffffffffffffffffffffffffffffffffff1673ffffffffffffffffffffffffffffffffffffffff16815260200190815260200160002080549050905090565b610b79610f35565b6000600260008573ffffffffffffffffffffffffffffffffffffffff1673ffffffffffffffffffffffffffffffffffffffff16815260200190815260200160002080549050905060005b81811015610e4857600260008673ffffffffffffffffffffffffffffffffffffffff1673ffffffffffffffffffffffffffffffffffffffff1681526020019081526020016000208181548110610c1c57610c1b6117ce565b5b906000526020600020906003020160405180606001604052908160008201548152602001600182015481526020016002820160009054906101000a900460ff161515151581525050925083836020015103610e3557600015158360400151151514610cbc576040517f08c379a0000000000000000000000000000000000000000000000000000000008152600401610cb390611849565b60405180910390fd5b6000836000015111610d03576040517f08c379a0000000000000000000000000000000000000000000000000000000008152600401610cfa906118b5565b60405180910390fd5b600115153373ffffffffffffffffffffffffffffffffffffffff166108fc85600001519081150290604051600060405180830381858888f19350505050151514610d82576040517f08c379a0000000000000000000000000000000000000000000000000000000008152600401610d7990611921565b60405180910390fd5b6001600260003373ffffffffffffffffffffffffffffffffffffffff1673ffffffffffffffffffffffffffffffffffffffff1681526020019081526020016000208281548110610dd557610dd46117ce565b5b906000526020600020906003020160020160006101000a81548160ff0219169083151502179055507f07c755342db70f3cd9b012463bcfdc68a1009115e2f9910e5562f81d73e5c22585604051610e2c9190611950565b60405180910390a15b8080610e40906119fa565b915050610bc3565b5050505050565b828054610e5b9061199a565b90600052602060002090601f016020900481019282610e7d5760008555610ec4565b82601f10610e9657805160ff1916838001178555610ec4565b82800160010185558215610ec4579182015b82811115610ec3578251825591602001919060010190610ea8565b5b509050610ed19190610f58565b5090565b828054828255906000526020600020908101928215610f24579160200282015b82811115610f23578251829080519060200190610f13929190610e4f565b5091602001919060010190610ef5565b5b509050610f319190610f75565b5090565b604051806060016040528060008152602001600081526020016000151581525090565b5b80821115610f71576000816000905550600101610f59565b5090565b5b80821115610f955760008181610f8c9190610f99565b50600101610f76565b5090565b508054610fa59061199a565b6000825580601f10610fb75750610fd6565b601f016020900490600052602060002090810190610fd59190610f58565b5b50565b6000604051905090565b600080fd5b600080fd5b6000819050919050565b61100081610fed565b811461100b57600080fd5b50565b60008135905061101d81610ff7565b92915050565b60006020828403121561103957611038610fe3565b5b60006110478482850161100e565b91505092915050565b600081519050919050565b600082825260208201905092915050565b60005b8381101561108a57808201518184015260208101905061106f565b83811115611099576000848401525b50505050565b6000601f19601f8301169050919050565b60006110bb82611050565b6110c5818561105b565b93506110d581856020860161106c565b6110de8161109f565b840191505092915050565b600081519050919050565b600082825260208201905092915050565b6000819050602082019050919050565b600082825260208201905092915050565b600061113182611050565b61113b8185611115565b935061114b81856020860161106c565b6111548161109f565b840191505092915050565b600061116b8383611126565b905092915050565b6000602082019050919050565b600061118b826110e9565b61119581856110f4565b9350836020820285016111a785611105565b8060005b858110156111e357848403895281516111c4858261115f565b94506111cf83611173565b925060208a019950506001810190506111ab565b50829750879550505050505092915050565b6111fe81610fed565b82525050565b600060e082019050818103600083015261121e818a6110b0565b9050818103602083015261123281896110b0565b9050818103604083015261124681886110b0565b9050818103606083015261125a8187611180565b905061126960808301866111f5565b61127660a08301856111f5565b61128360c08301846111f5565b98975050505050505050565b600080fd5b600080fd5b7f4e487b7100000000000000000000000000000000000000000000000000000000600052604160045260246000fd5b6112d18261109f565b810181811067ffffffffffffffff821117156112f0576112ef611299565b5b80604052505050565b6000611303610fd9565b905061130f82826112c8565b919050565b600067ffffffffffffffff82111561132f5761132e611299565b5b6113388261109f565b9050602081019050919050565b82818337600083830152505050565b600061136761136284611314565b6112f9565b90508281526020810184848401111561138357611382611294565b5b61138e848285611345565b509392505050565b600082601f8301126113ab576113aa61128f565b5b81356113bb848260208601611354565b91505092915050565b600067ffffffffffffffff8211156113df576113de611299565b5b602082029050602081019050919050565b600080fd5b6000611408611403846113c4565b6112f9565b9050808382526020820190506020840283018581111561142b5761142a6113f0565b5b835b8181101561147257803567ffffffffffffffff8111156114505761144f61128f565b5b80860161145d8982611396565b8552602085019450505060208101905061142d565b5050509392505050565b600082601f8301126114915761149061128f565b5b81356114a18482602086016113f5565b91505092915050565b600067ffffffffffffffff8211156114c5576114c4611299565b5b602082029050602081019050919050565b600073ffffffffffffffffffffffffffffffffffffffff82169050919050565b6000611501826114d6565b9050919050565b611511816114f6565b811461151c57600080fd5b50565b60008135905061152e81611508565b92915050565b6000611547611542846114aa565b6112f9565b9050808382526020820190506020840283018581111561156a576115696113f0565b5b835b81811015611593578061157f888261151f565b84526020840193505060208101905061156c565b5050509392505050565b600082601f8301126115b2576115b161128f565b5b81356115c2848260208601611534565b91505092915050565b60008060008060008060008060006101208a8c0312156115ee576115ed610fe3565b5b60008a013567ffffffffffffffff81111561160c5761160b610fe8565b5b6116188c828d01611396565b99505060208a013567ffffffffffffffff81111561163957611638610fe8565b5b6116458c828d01611396565b98505060408a013567ffffffffffffffff81111561166657611665610fe8565b5b6116728c828d01611396565b97505060608a013567ffffffffffffffff81111561169357611692610fe8565b5b61169f8c828d0161147c565b96505060808a013567ffffffffffffffff8111156116c0576116bf610fe8565b5b6116cc8c828d0161159d565b95505060a06116dd8c828d0161100e565b94505060c06116ee8c828d0161100e565b93505060e06116ff8c828d0161100e565b9250506101006117118c828d0161100e565b9150509295985092959850929598565b600060208201905061173660008301846111f5565b92915050565b60008115159050919050565b6117518161173c565b82525050565b600060608201905061176c60008301866111f5565b61177960208301856111f5565b6117866040830184611748565b949350505050565b600080604083850312156117a5576117a4610fe3565b5b60006117b38582860161151f565b92505060206117c48582860161100e565b9150509250929050565b7f4e487b7100000000000000000000000000000000000000000000000000000000600052603260045260246000fd5b7f416c726561647920506169640000000000000000000000000000000000000000600082015250565b6000611833600c8361105b565b915061183e826117fd565b602082019050919050565b6000602082019050818103600083015261186281611826565b9050919050565b7f496e73756666696369656e74206d6f6e65790000000000000000000000000000600082015250565b600061189f60128361105b565b91506118aa82611869565b602082019050919050565b600060208201905081810360008301526118ce81611892565b9050919050565b7f5472616e73616374696f6e204661696c65640000000000000000000000000000600082015250565b600061190b60128361105b565b9150611916826118d5565b602082019050919050565b6000602082019050818103600083015261193a816118fe565b9050919050565b61194a816114f6565b82525050565b60006020820190506119656000830184611941565b92915050565b7f4e487b7100000000000000000000000000000000000000000000000000000000600052602260045260246000fd5b600060028204905060018216806119b257607f821691505b6020821081036119c5576119c461196b565b5b50919050565b7f4e487b7100000000000000000000000000000000000000000000000000000000600052601160045260246000fd5b6000611a0582610fed565b91507fffffffffffffffffffffffffffffffffffffffffffffffffffffffffffffffff8203611a3757611a366119cb565b5b600182019050919050565b7f4e487b7100000000000000000000000000000000000000000000000000000000600052601260045260246000fd5b6000611a7c82610fed565b9150611a8783610fed565b925082611a9757611a96611a42565b5b82820490509291505056fea2646970667358221220c4dfc9c454ed91d5f79a6d0548a345edbd0ba5a7be59edfbaf2a12758c4bbf4364736f6c634300080d0033",
  "immutableReferences": {},
  "source": "// SPDX-License-Identifier: MIT\r\npragma solidity ^0.8.13;\r\n\r\ncontract DeCloudFiles { \r\n\r\n    struct FileDetails {\r\n        string hashValueOfFile; \r\n        string nameOfFile;  \r\n        string typeOfFile;\r\n        string[] storedIn;\r\n        uint256 splitInto;\r\n        uint256 uploadDate;\r\n        uint256 fileSize;\r\n    }\r\n\r\n    struct TransactionDetails {\r\n        uint256 amount;\r\n        uint256 date;\r\n        bool isPaid;\r\n    }\r\n\r\n    mapping (address => FileDetails[]) files;\r\n    mapping (address => uint256) noOfFiles;\r\n    mapping (address => TransactionDetails[]) amountGainedBy; \r\n\r\n    event FileAdded();\r\n    event FundsWithdrawn(address to);\r\n\r\n    function addFile (string memory filehash, string memory fileName, string memory fileType,string[] memory storedIn,address[] memory storageOwners,uint256 numberOfStorageOwner,uint256 splitInto, uint256 uploadDate,uint256 fileSize) public payable {\r\n        files[msg.sender].push(FileDetails(filehash,fileName,fileType,storedIn,splitInto,uploadDate,fileSize));\r\n        noOfFiles[msg.sender]++;\r\n\r\n        for(uint i = 0 ; i < numberOfStorageOwner ; i++){\r\n            amountGainedBy[storageOwners[i]].push(TransactionDetails(msg.value / numberOfStorageOwner ,uploadDate, false));\r\n        }\r\n        emit FileAdded();\r\n    }\r\n\r\n    function getFile(uint256 position) public view returns (string memory, string memory, string memory, string[] memory, uint256, uint256, uint256) {\r\n        FileDetails memory file = files[msg.sender][position];\r\n        return ( file.hashValueOfFile, file.nameOfFile, file.typeOfFile, file.storedIn,file.splitInto,file.uploadDate,file.fileSize);\r\n    }\r\n\r\n    function getNoOfFile() public view returns (uint256){\r\n        return files[msg.sender].length;\r\n    }\r\n\r\n    function getNoOfPaidAmount() public view returns (uint256){\r\n        return amountGainedBy[msg.sender].length;\r\n    }\r\n\r\n    function getAmount(uint256 position) public view returns (uint256, uint256, bool){\r\n        TransactionDetails memory transac = amountGainedBy[msg.sender][position];\r\n        return (transac.amount,transac.date,transac.isPaid);\r\n    }\r\n\r\n    function getPaid(uint256 position) public payable{\r\n        TransactionDetails memory transac = amountGainedBy[msg.sender][position];\r\n\r\n        require(transac.isPaid == false,\"Already Paid\");\r\n        require(transac.amount > 0,\"Insufficient money\");\r\n        // require(block.timestamp > (2629746 + transac.date),'Please wait till a month');\r\n\r\n        require(payable(msg.sender).send(transac.amount) == true,\"Transaction Failed\");\r\n        \r\n        amountGainedBy[msg.sender][position].isPaid = true;\r\n        emit FundsWithdrawn(msg.sender);\r\n    }\r\n\r\n    function getRefund(address storageOwner,uint uploadDate) public payable {\r\n        TransactionDetails memory transac;\r\n        uint temp = amountGainedBy[storageOwner].length;\r\n        for(uint i = 0 ; i < temp;i++){\r\n            transac = amountGainedBy[storageOwner][i];\r\n            if(transac.date == uploadDate){\r\n                require(transac.isPaid == false,\"Already Paid\");\r\n                require(transac.amount > 0,\"Insufficient money\");\r\n                // require(block.timestamp > (2629746 + transac.date),'Please wait till a month');\r\n\r\n                require(payable(msg.sender).send(transac.amount) == true,\"Transaction Failed\");\r\n        \r\n                amountGainedBy[msg.sender][i].isPaid = true;\r\n                emit FundsWithdrawn(storageOwner);\r\n            }\r\n        }\r\n    } \r\n}\r\n",
  "sourcePath": "/home/aaj/Documents/Workspace/DeCloud/truffle/contracts/DeCloudFiles.sol",
  "compiler": {
    "name": "solc",
    "version": "0.8.13+commit.abaa5c0e.Emscripten.clang"
  },
  "schemaVersion": "3.4.6",
  "updatedAt": "2022-05-06T04:45:44.909Z",
  "networkType": "ethereum",
  "devdoc": {
    "kind": "dev",
    "methods": {},
    "version": 1
  },
  "userdoc": {
    "kind": "user",
    "methods": {},
    "version": 1
  }
}